:1000000014C02EC02DC02CC02BC02AC0C0C028C018
:1000100027C026C025C0ECC023C022C021C020C0FC
:100020001FC01EC01DC01CC01BC011241FBECFE5B9
:10003000D1E0DEBFCDBF10E0A0E6B0E0E0E7F7E042
:1000400002C005900D92A036B107D9F720E0A0E6D6
:10005000B0E001C01D92A037B207E1F744D386C3D8
:10006000CFCF87B3816A87BB88B3816488BBBE98D2
:1000700088B3826488BB889882B38F6782BBBC9A3E
:10008000C498BF9AC798BA9888B38C6088BBBD984B
:1000900088B3806688BB0895C79AC098E1EEF4E003
:1000A0003197F1F700C0000028E030E0C79880FFEA
:1000B00002C0C59A01C0C59886958068C79AEDEEC2
:1000C000F2E03197F1F700C000002150310971F7DB
:1000D000C5980895C098E0DF80E0DEDFC09A0895FB
:1000E000CF93C82F81E0F6DF81EE94E00197F1F71E
:1000F00000C00000C09882E0CFDF80E0CDDF8C2F11
:10010000CBDF80E0C9DFC09A81EE94E00197F1F780
:1001100000C00000C59881EE94E00197F1F700C09F
:100120000000C698CF9108950F931F93CF93DF934C
:10013000082F192FD62FC72F81E0CCDF81EE94E056
:100140000197F1F700C00000C09880E8A5DF80E0CB
:10015000A3DF802FA1DF812F9FDF8D2F9DDF8C2FCD
:100160009BDF80E099DFC09A81EE94E00197F1F780
:1001700000C00000C59881EE94E00197F1F700C03F
:100180000000C698DF91CF911F910F9108951F92A3
:100190000F920FB60F9211240F900FBE0F901F9069
:1001A00018952AE030E098E088B3892788BBE3EC13
:1001B000F9E03197F1F700C0000021503109A1F7B3
:1001C0002AE030E090E188B3892788BBE3ECF9E0CE
:1001D0003197F1F700C0000021503109A1F70895CF
:1001E0008BB780628BBF80B58E6680BD7894089592
:1001F0001F920F920FB60F9211242F933F934F939C
:100200005F936F937F938F939F93AF93BF93EF937E
:10021000FF9380916D00813011F4B39BDBC08FE4BC
:1002200093EC0197F1F700C0000080916D008111FF
:1002300002C0B399E8C080916B00813011F4B3998A
:10024000FCC080916E0081115EC0B69B04C12EC0BF
:100250008FE493EC0197F1F700C000006AE071E0D1
:100260008BEF90E061DF82E03BDFC69A9FE926E8F2
:1002700081E0915020408040E1F700C00000B69935
:1002800011C080916E0081113EC080916B00811180
:1002900002C0B69BE5C080916B00813039F4B69BFB
:1002A00004C104C080916E0081112DC0B59B21C195
:1002B0005DC08FE493EC0197F1F700C000006AE0A5
:1002C00071E08BEF90E030DF82E00ADFC59A9FE9B2
:1002D00026E881E0915020408040E1F700C0000016
:1002E000B59911C080916E0081110DC080916B0095
:1002F000811102C0B59B02C180916B008130B1F5C4
:10030000B59B21C133C080916E00813009F0DAC104
:10031000B69B3DC130C08FE493EC0197F1F700C06C
:1003200000006AE071E08BEF90E0FEDE82E0D8DE54
:10033000C69A9FE926E881E0915020408040E1F78D
:1003400000C00000B69912C080916E00813009F0A3
:10035000B9C180916B00811102C0B69B1DC1809113
:100360006B00813041F4B69B3CC105C080916E00AA
:10037000813009F0A7C1B59B58C1A4C18FE493ECAB
:100380000197F1F700C000006AE071E08BEF90E0A8
:10039000CBDE82E0A5DEC59A9FE926E881E0915098
:1003A00020408040E1F700C00000B5998BC18091EA
:1003B0006E00813009F086C180916B00811102C00E
:1003C000B59B38C180916B00813009F07BC1B59B32
:1003D00056C178C18FE493EC0197F1F700C000009B
:1003E0006AE071E08BEF90E09FDE9FE728E381E019
:1003F000915020408040E1F700C0000082E070DEB4
:1004000010926D000CCF8FE493EC0197F1F700C0D0
:1004100000006AE071E08BEF90E086DE9FEB24ED58
:1004200081E0915020408040E1F700C0000082E070
:1004300057DE81E080936D00FECE8FE493EC019750
:10044000F1F700C000006AE071E08BEF90E06CDE35
:1004500082E046DEF6CE80916B00811107CFF8CEA8
:100460009FEB27E289E0915020408040E1F700C0F7
:10047000000097DE8FE493EC0197F1F700C00000D5
:100480006AE071E08BEF90E04FDE82E029DE89DEEA
:100490009FED23E984E0915020408040E1F700C0C7
:1004A000000081E080936B000DC19FEB27E289E0A3
:1004B000915020408040E1F700C0000072DE8FE4E0
:1004C00093EC0197F1F700C000006AE071E08BEF58
:1004D00090E02ADE82E004DE64DE9FED23E984E022
:1004E000915020408040E1F700C0000010926B0066
:1004F000E9C080916B008111EACEDBCE9FEB27E251
:1005000089E0915020408040E1F700C0000049DEC2
:100510008FE493EC0197F1F700C000006AE071E00E
:100520008BEF90E001DE82E0DBDD3BDE9FED23E937
:1005300084E0915020408040E1F700C0000081E05D
:1005400080936B00BFC09FEB27E289E09150204071
:100550008040E1F700C0000024DE8FE493EC0197B7
:10056000F1F700C000006AE071E08BEF90E0DCDDA5
:1005700082E0B6DD16DE9FED23E984E09150204055
:100580008040E1F700C0000010926B009BC080919A
:100590006B008111CECEBFCE9FEB27E289E0915058
:1005A00020408040E1F700C00000FBDD8FE493ECC9
:1005B0000197F1F700C000006AE071E08BEF90E076
:1005C000B3DD82E08DDDEDDD9FED23E984E0915028
:1005D00020408040E1F700C0000081E080936B0084
:1005E00071C09FEB27E289E0915020408040E1F705
:1005F00000C00000D6DD8FE493EC0197F1F700C056
:1006000000006AE071E08BEF90E08EDD82E068DD53
:10061000C8DD9FED23E984E0915020408040E1F760
:1006200000C0000010926B004DC080916B008111E2
:10063000B3CEA4CE9FEB27E289E0915020408040CA
:10064000E1F700C00000ADDD8FE493EC0197F1F716
:1006500000C000006AE071E08BEF90E065DD82E0B1
:100660003FDD9FDD9FED23E984E0915020408040F5
:10067000E1F700C0000081E080936B0023C09FEB96
:1006800027E289E0915020408040E1F700C000005F
:1006900088DD8FE493EC0197F1F700C000006AE079
:1006A00071E08BEF90E040DD82E01ADD7ADD9FEDB6
:1006B00023E984E0915020408040E1F700C0000031
:1006C00010926B00FF91EF91BF91AF919F918F912D
:1006D0007F916F915F914F913F912F910F900FBE3E
:1006E0000F901F901895BDDC109263001092670068
:1006F0001092660010926C008EE18093650010925B
:100700006F00109269001092680010926A001092B7
:10071000640010926200109261001092600060DD2F
:1007200087B38C6187BBC298C398C49880E090E47B
:100730009BBD8ABD1FBC8AE08EBDF894A89584B786
:10074000877F84BF11BC85B7806585BF8BB780610B
:100750008BBF85B1886385B9789487E0BBDC87EA75
:1007600091E60197F1F700C00000FFCFF894FFCFAA
:00000001FF
