S018000041746D656761385F6D70335F554152542E737265637B
S113000014C02EC02DC02CC02BC02AC07FC028C055
S113001027C026C025C08DC123C022C021C020C056
S11300201FC01EC01DC01CC01BC011241FBECFE5B5
S1130030D1E0DEBFCDBF10E0A0E6B0E0E2EFF9E032
S113004002C005900D92A236B107D9F720E0A2E6CE
S1130050B0E001C01D92AE36B207E1F718D4C7C4B0
S1130060CFCF10926500109269008EE180936800F2
S113007010926D0010926B0010926A0010926C0046
S11300801092660010926400109263001092620055
S11300908D9A8C9A8B9A8A9A899A889AD09AD19AAC
S11300A0BE9A87B38D6187BBC498B99AC198D29818
S11300B0DA9ABD9888B3806E88BB909A919AD89A40
S11300C0D99A929A939A949A959A089580E090E492
S11300D09BBD8ABD1FBC8AE08EBDF894A89584B7E9
S11300E0877F84BF11BC85B7806585BF08958FE481
S11300F093EC0197F1F700C00000909A919AD89A76
S1130100D99A929A939A949A959A08951F920F92D3
S11301100FB60F9211240F900FBE0F901F901895D9
S11301208AE090E034E028B3232728BBE3ECF9E02D
S11301303197F1F700C000000197A9F78AE090E039
S113014038E028B3232728BBE3ECF9E03197F1F733
S113015000C000000197A9F78AE090E030E128B3DD
S1130160232728BBE3ECF9E03197F1F700C0000046
S11301700197A9F708958BB780628BBF80B5826E13
S113018080BD78940895C198089508B606FE48C0C5
S113019088B7806488BF809169008F5F809369000D
S11301A098B388E0892788BB9091690080916800A2
S11301B0981336C0109269009ADF81EE94E001979B
S11301C0F1F700C000009098919AD89AD998929A21
S11301D0939A949A959A8BDF81EE94E00197F1F7C4
S11301E000C00000D0DFC29AC39AC49A9FE52AEEE9
S11301F080E0915020408040E1F700C00000C298A8
S1130200C398C49881EE94E00197F1F700C0000010
S113021085B7806285BF7894889585B78F7D85BFC3
S11302200895CF93DF9383E080BF89E08FBD83B7C8
S1130230816083BF8EB581608EBD80B7806880BFCA
S11302408FB580688FBD8FB580628FBD1BBC1ABC13
S113025016BE19BC18BC81E08EBDC498C298C39860
S1130260CAE0D0E080E090E020916600222341F0D3
S1130270E7E8F3E13197F1F700C0000099BD88BDCC
S113028001968F3F910581F78FEF90E020916600F2
S1130290222341F0E7E8F3E13197F1F700C00000D1
S11302A099BD88BD019791F780E090E020916600A8
S11302B0222341F0E7E8F3E13197F1F700C00000B1
S11302C09BBD8ABD01968F3F910581F78FEF90E02A
S11302D020916600222341F0E7E8F3E13197F1F73A
S11302E000C000009BBD8ABD019791F780E090910A
S11302F06600992339F0E7E8F3E13197F1F700C09C
S1130300000086BF8F5F8F3F91F79091660099231D
S113031039F0E7E8F3E13197F1F700C0000086BF58
S1130320815099F732DF219709F09CCFDF91CF916B
S113033008951F920F920FB60F9211242F933F939B
S11303404F935F936F937F938F939F93AF93BF93D9
S1130350EF93FF9318DF10926900B79983C010924E
S1130360640080916D008F5F80936D00813069F52A
S11303702FE58AEE90E0215080409040E1F700C0E4
S11303800000909A9198D89AD998929A939A949AAC
S1130390959AADDE2FE78FE492E1215080409040A2
S11303A0E1F700C00000909A9198D89AD998929A4F
S11303B0939A949A959A9BDE2FE58AEE90E02150C9
S11303C080409040E1F700C0000080916D008230D1
S11303D091F42FE58AEE90E0215080409040E1F7BF
S11303E000C00000909A919AD898D998929A939ABA
S11303F0949A959A7CDE80916D00833091F42FE578
S11304008AEE90E0215080409040E1F700C0000067
S11304109098919AD898D998929A939A949A959AEE
S113042066DE80916D00843091F42FE58AEE90E0D1
S1130430215080409040E1F700C00000909A9198CC
S1130440D898D998929A939A949A959A50DE8091D2
S11304506D00853039F410926D00809168008550EC
S113046080936900B69995C0809164008F5F8093F2
S1130470640080916400813029F480916D008130A2
S113048009F4E2C080916400823029F480916D0007
S1130490813009F4E8C080916400833029F48091AC
S11304A06D00813009F4EEC080916400843029F439
S11304B080916D00813009F4F4C080916400813032
S11304C029F480916D00823009F4FCC080916400AD
S11304D0823029F480916D00823009F403C1809147
S11304E06400833029F480916D00823009F40AC1DC
S11304F080916400843029F480916D00823009F485
S113050011C180916400813029F480916D008330A1
S113051009F41AC180916400823029F480916D003D
S1130520833009F421C180916400833029F48091DF
S11305306D00833009F428C180916400843029F46B
S113054080916D00833009F42FC180916400813063
S113055029F480916D00843009F438C180916400DD
S1130560823029F480916D00843009F43FC1809178
S11305706400833029F480916D00843009F446C10D
S113058080916400843029F480916D00843009F4F2
S11305904DC1B5996BC1809167008F5F80936700EF
S11305A0853061F581EE94E00197F1F700C0000019
S11305B058DD109267001092660099DD81EE94E098
S11305C00197F1F700C000009098919AD89AD998B1
S11305D0929A939A949A959A8ADD9FED23E984E0FE
S11305E0915020408040E1F700C0000085B7806250
S11305F085BF7894889585B78F7D85BF9FE52AEE62
S113060080E0915020408040E1F700C00000B5999F
S11306102DC180916000813011F4B59B19C1809186
S11306206000811123C1B59921C17ADDB3D19FE95D
S113063026E881E0915020408040E1F700C00000AE
S113064081E08093600012C18FE493EC0197F1F78D
S113065000C0000090989198D898D998929A939A4B
S1130660949A959A0FCF8FE493EC0197F1F700C019
S113067000009098919AD89AD99A9298939A949AB9
S1130680959A09CF8FE493EC0197F1F700C000002D
S1130690909A9198D89AD99A9298939A949A959A6A
S11306A003CF8FE493EC0197F1F700C0000090981A
S11306B09198D89AD99A9298939A949A959A1092D2
S11306C06400FBCE8FE493EC0197F1F700C00000C7
S11306D09098919AD898D99A929A939A949A959A2A
S11306E006DDF4CE8FE493EC0197F1F700C000002F
S11306F0909A9198D898D99A929A939A949A959A0A
S1130700F6DCEDCE8FE493EC0197F1F700C0000026
S113071090989198D898D99A929A939A949A959AEB
S1130720E6DCE6CE8FE493EC0197F1F700C000001D
S1130730909A919AD89AD998929A939A949A959AC7
S1130740D6DC10926400DDCE8FE493EC0197F1F7D0
S113075000C000009098919AD89AD998929A939A46
S1130760949A959AC4DCD6CE8FE493EC0197F1F772
S113077000C00000909A9198D89AD998929A939A26
S1130780949A959AB4DCCFCE8FE493EC0197F1F769
S113079000C00000909A919AD898D998929A939A06
S11307A0949A959AA4DCC8CE8FE493EC0197F1F760
S11307B000C000009098919AD898D998929A939AE8
S11307C0949A959A94DC10926400BFCE8FE493ECD3
S11307D00197F1F700C000009098919AD89AD99A9D
S11307E09298939A949A959A82DCB8CE8FE493EC7B
S11307F00197F1F700C00000909A9198D89AD99A7D
S11308009298939A949A959A72DCB1CE8FE493EC71
S11308100197F1F700C0000090989198D89AD99A5E
S11308209298939A949A959A62DCAACE8FE493EC68
S11308300197F1F700C00000909A919AD89AD99A3A
S11308409298939A949A959A52DC10926400A1CE4D
S113085067DCBCD09FE926E881E0915020408040CD
S1130860E1F700C0000010926000D9CEFF91EF9133
S1130870BF91AF919F918F917F916F915F914F91B4
S11308803F912F910F900FBE0F901F901895E9DBA9
S11308907ADC1CDC70DC7ED081E08093650090986B
S11308A0919AD89AD998929A939A949A959A1FDC85
S11308B0D0E1C1E008B606FE40C088B7806488BFB6
S11308C0809165008823C9F1809169008F5F8093CE
S11308D0690088B38D2788BB909169008091680076
S11308E098132BC01092690002DC83ED90E301970A
S11308F0F1F700C000009FE926E881E09150204014
S11309008040E1F700C00000C29A9FE52AEE80E033
S1130910915020408040E1F700C00000C29881EE71
S113092094E00197F1F700C0000085B7806285BFAD
S11309307894889585B78F7D85BF809167008130D5
S113094019F4C39AC298C49880916700823019F44C
S1130950C29AC398C49880916700833019F4C49AEA
S1130960C298C39880916700843009F0A3CFC093E4
S1130970660057DC0ADC9ECFC09A83E08A95F1F7C3
S11309800000969800C0C09800C0C09A00C0C09AE9
S1130990969A0895CF938E9AB89A969AC09A83EFAE
S11309A091E00197F1F700C00000C0E5E5DFC15018
S11309B0E9F7CF910895C09800C000C00000969850
S11309C000C0C09A00C0C09A969A0895CF938E9A98
S11309D0B89A969AC09A83EF91E00197F1F700C014
S11309E00000C0E5E8DFC150E9F7CF910895F8941D
S10509F0FFCF33
S10509F20100FE
S9030000FC
